:020000040800F2
:1000000000280020BD1500084D15000853150008F4
:10001000591500085F15000865150008000000006C
:100020000000000000000000000000006B15000848
:100030007715000800000000831500088F150008E0
:100040000516000805160008051600080516000824
:100050000516000805160008051600080516000814
:100060000516000805160008051600080516000804
:1000700005160008051600080516000805160008F4
:1000800005160008051600080516000805160008E4
:1000900005160008051600080516000805160008D4
:1000A00005160008051600080516000805160008C4
:1000B0009D15000805160008000000000516000840
:1000C00005160008000000000000000005160008EA
:1000D00000000000051600080516000800000000DA
:1000E00005160008051600080516000800000000A7
:1000F0000000000000000000000000000000000000
:0C01000000000000000000005FF808F1A3
:10010C0010B5054C237833B9044B13B10448AFF345
:10011C0000800123237010BD4C0000200000000063
:10012C004C2C000808B5034B1BB103490348AFF333
:10013C00008008BD00000000500000204C2C00087E
:10014C004FF0FF0C1CEAD0521EBF1CEAD15392EAAE
:10015C000C0F93EA0C0F6FD01A4480EA010C40028A
:10016C0018BF5FEA41211ED04FF0006343EA5010E4
:10017C0043EA5111A0FB01310CF00040B1F5000F26
:10018C003EBF490041EAD3715B0040EA010062F1D5
:10019C007F02FD2A1DD8B3F1004F40EBC25008BFBF
:1001AC0020F00100704790F0000F0CF0004C08BFDD
:1001BC0049024CEA502040EA51207F3AC2BFD2F1AA
:1001CC00FF0340EAC250704740F400004FF00003B8
:1001DC00013A5DDC12F1190FDCBF00F000407047F2
:1001EC00C2F10002410021FA02F1C2F1200200FA30
:1001FC0002FC5FEA310040F1000053EA4C0308BFF7
:10020C0020EADC70704792F0000F00F0004C02BF47
:10021C00400010F4000F013AF9D040EA0C0093F0C2
:10022C00000F01F0004C02BF490011F4000F013B1C
:10023C00F9D041EA0C018FE70CEAD15392EA0C0F8A
:10024C0018BF93EA0C0F0AD030F0004C18BF31F0F5
:10025C00004CD8D180EA010000F00040704790F0CB
:10026C00000F17BF90F0004F084691F0000F91F06F
:10027C00004F14D092EA0C0F01D142020FD193EA35
:10028C000C0F03D14B0218BF084608D180EA0100BD
:10029C0000F0004040F0FE4040F40000704740F099
:1002AC00FE4040F44000704780F0004002E000BF88
:1002BC0081F0004142001FBF5FEA410392EA030F45
:1002CC007FEA226C7FEA236C6AD04FEA1262D2EB8F
:1002DC001363C1BFD218414048404140B8BF5B4294
:1002EC00192B88BF704710F0004F40F4000020F02D
:1002FC007F4018BF404211F0004F41F4000121F043
:10030C007F4118BF494292EA030F3FD0A2F101028C
:10031C0041FA03FC10EB0C00C3F1200301FA03F1CA
:10032C0000F0004302D5494260EB4000B0F5000FED
:10033C0013D3B0F1807F06D340084FEA310102F1AC
:10034C000102FE2A51D2B1F1004F40EBC25008BF5E
:10035C0020F0010040EA03007047490040EB000028
:10036C00013A28BFB0F5000FEDD2B0FA80FCACF129
:10037C00080CB2EB0C0200FA0CF0AABF00EBC25056
:10038C0052421843BCBFD0401843704792F0000F44
:10039C0081F4000106BF80F400000132013BB5E797
:1003AC004FEA41037FEA226C18BF7FEA236C21D00D
:1003BC0092EA030F04D092F0000F08BF0846704772
:1003CC0090EA010F1CBF0020704712F07F4F04D140
:1003DC00400028BF40F00040704712F100723CBF53
:1003EC0000F50000704700F0004343F0FE4040F47D
:1003FC00000070477FEA226216BF08467FEA23633B
:10040C000146420206BF5FEA412390EA010F40F425
:10041C00800070474FF0000304E000BF10F0004371
:10042C0048BF40425FEA000C08BF704743F0964358
:10043C0001464FF000001CE050EA010208BF704773
:10044C004FF000030AE000BF50EA010208BF7047FA
:10045C0011F0004302D5404261EB41015FEA010C0F
:10046C0002BF84460146002043F0B64308BFA3F107
:10047C008053A3F50003BCFA8CF2083AA3EBC253E9
:10048C0010DB01FA02FC634400FA02FCC2F1200208
:10049C00BCF1004F20FA02F243EB020008BF20F03F
:1004AC000100704702F1200201FA02FCC2F12002A5
:1004BC0050EA4C0021FA02F243EB020008BF20EA9A
:1004CC00DC7070474FEA4002B2F1FE4F0FD34FF091
:1004DC009E03B3EB12620DD94FEA002343F00043A5
:1004EC0010F0004F23FA02F018BF404270474FF053
:1004FC000000704712F1610F01D1420205D110F0DA
:10050C00004008BF6FF0004070474FF0000070478C
:10051C0080B483B000AF7860044A7B68012142F854
:10052C00231000BF0C37BD4680BC7047680000200C
:10053C0080B483B000AF7860094A7B6852F82330EE
:10054C00012B06D1064A7B68002142F823100123B7
:10055C0000E0002318460C37BD4680BC704700BF36
:10056C006800002080B582B000AF78600B467B80BD
:10057C00334A7B6852F8232032497B6841F82320A8
:10058C00314A7B6852F823202D497B6841F823209F
:10059C007B8819462D4801F01BFB034619462A4A55
:1005AC007B6842F82310274A7B6852F823202449A1
:1005BC007B6851F823309A423DD1214A7B6852F82E
:1005CC00232021497B6851F823309A4233D11E4AAB
:1005DC007B6852F823201E497B6851F823309A42DD
:1005EC0014D0194A7B6852F8232019497B6841F8CA
:1005FC002320154A7B6852F82330002B1BD17868D6
:10060C00FFF786FF134B32221A6014E0114B1B6864
:10061C00013B104A13600F4B1B68002B0BDC0A4A82
:10062C007B6852F82330002B02D17868FFF770FFFB
:10063C00084B32221A6000BF0837BD4680BD00BF90
:10064C000C000020000000201800002000080140D1
:10065C00240000203000002080B500AFB44B1B8874
:10066C00042B00F22B8201A252F823F08D06000815
:10067C0021070008FF070008E5080008E509000845
:10068C0001220121AB4801F0BAFA01220221A9484A
:10069C0001F0B5FA01220421A64801F0B0FA0122BA
:1006AC000821A44801F0ABFA01221021A14801F065
:1006BC00A6FA012220219F4801F0A1FA0122102163
:1006CC009D4801F09CFA012220219B4801F097FAE9
:1006DC0001224021984801F092FA0122802196488B
:1006EC0001F08DFA924B01221A8000214FF07E50BE
:1006FC0000F07EFE914B9B781846FFF78BFE03466D
:10070C000121184600F074FE02214FF07C5000F0DD
:10071C006FFEDCE18A4B5B68012B27D1874B5A7843
:10072C00884B1A70884B1B780133DAB2864B1A70DF
:10073C00844B1B780133DAB2824B1A707C4B022249
:10074C001A80012201217B4801F059FA0122102163
:10075C00784801F054FA794B5B781846FFF75AFE4B
:10076C0003460121184600F043FE25E0002201213A
:10077C00704801F044FA002210216E4801F03FFA53
:10078C006F4B9B68002B17D0704B1B781846704B27
:10079C001B785A1CD1B26E4A1170194600F0C6FB78
:1007AC006B4B1B7803F00303DAB2694B1A7002210E
:1007BC004FF07C5000F01CFE0020FFF7B9FE034602
:1007CC00002B00F07D815A4B0C221A800122012152
:1007DC00584801F014FA01221021564801F00FFA82
:1007EC005A4B01221A7000214FF07C5000F000FE91
:1007FC0066E1534B5B68012B2BD1504B9A78524BD3
:10080C001A704E4B1A784F4B1A704F4B1B780133A2
:10081C00DAB24D4B1A704B4B1B780133DAB2494BA1
:10082C001A70434B03221A8001220121414801F026
:10083C00E6F9012220213F4801F0E1F93F4B9B787A
:10084C001846FFF7E7FD03460121184600F0D0FDDE
:10085C0025E000220121374801F0D1F900222021A6
:10086C00344801F0CCF9364B9B68002B17D0374B32
:10087C001B781846364B1B785A1CD1B2344A11706F
:10088C00194600F053FB324B1B7803F00303DAB22A
:10089C002F4B1A7002214FF07C5000F0A9FD002064
:1008AC00FFF746FE0346002B00F00C81204B0C2278
:1008BC001A80012201211F4801F0A1F901222021F7
:1008CC001C4801F09CF9214B01221A7000214FF0B9
:1008DC007C5000F08DFDF5E0194B5B68002B39D096
:1008EC00164B5A78184B1A70174B1B780133DAB227
:1008FC00154B1A70134B1B780133DAB2114B1A706B
:10090C000B4B04221A80012202210A4801F077F9CC
:10091C0001220821074801F072F9084B5B78184650
:10092C00FFF778FD03460121184600F061FD36E023
:10093C0074000020000C0140000801403800002029
:10094C00840000203C0000203B00002076000020AA
:10095C0077000020002202216E4801F050F900229D
:10096C0008216C4801F04BF96B4B9B68002B16D09F
:10097C006A4B1B7818466A4B1B785A1CD1B2684AD2
:10098C001170194600F0D2FA654B1B7803F0030383
:10099C00DAB2634B1A700221624800F029FD002084
:1009AC00FFF7C6FD0346002B00F08E805E4B0C2239
:1009BC001A8001220221574801F021F90122082155
:1009CC00544801F01CF9554B01221A7000214FF0CC
:1009DC007C5000F00DFD77E04F4B5B68002B2BD06B
:1009EC00524B1A78524B1A70504B9A78514B1A70D2
:1009FC004F4B1B780133DAB24D4B1A704D4B1B78B1
:100A0C000133DAB24B4B1A70474B01221A80012288
:100A1C000421404801F0F3F8012208213D4801F07F
:100A2C00EEF8424B9B781846FFF7F4FC0346012185
:100A3C00184600F0DDFC25E000220421354801F0C9
:100A4C00DEF800220821334801F0D9F8324B9B68BC
:100A5C00002B17D0314B1B781846314B1B785A1C86
:100A6C00D1B22F4A1170194600F060FA2C4B1B784A
:100A7C0003F00303DAB22A4B1A7002214FF07C50B8
:100A8C0000F0B6FC0020FFF753FD0346002B1DD0F1
:100A9C00254B0C221A80012204211E4801F0AFF8CC
:100AAC00012208211B4801F0AAF81C4B01221A70E4
:100ABC0000214FF07C5000F09BFC07E000BF06E0EB
:100ACC0000BF04E000BF02E000BF00E000BF124B1B
:100ADC001B68002B1CD0114B1B78002B18D1144B0E
:100AEC001B78002B05D0124B1B78013BDAB2104B54
:100AFC001A70104B1B78002B05D00E4B1B78013B4A
:100B0C00DAB20C4B1A7000214FF07E5000F070FCE2
:100B1C0000BF80BD000C0140840000207600002046
:100B2C00770000200000A040740000203800002056
:100B3C003B0000203C00002080B500AFA64B1B887A
:100B4C000E2B00F0A8800E2B00F325810C2B02D06D
:100B5C000D2B50D01FE1A14B9B68002B1DD0A04B3F
:100B6C001B7818469F4B1B785A1CD1B29D4A1170AA
:100B7C00194600F0DBF99B4B1A789B4BA3FB021335
:100B8C0059080B465B000B44D31ADAB2954B1A701A
:100B9C0002214FF07C5000F02BFC904B1B68002B7B
:100BAC0008D00921914801F042F800214FF07C5007
:100BBC0000F01EFC0020FFF7BBFC0346002B0DD001
:100BCC00854B0D221A8001220121884801F017F86B
:100BDC0001220821854801F012F8E3E00220FFF71A
:100BEC00A7FC0346002B00F0D880814B1B88DAB29F
:100BFC00804B1A70D1E0794B9B68002B1DD0784B41
:100C0C001B781846774B1B785A1CD1B2754A117059
:100C1C00194600F08BF9734B1A78734BA3FB021334
:100C2C0059080B465B000B44D31ADAB26D4B1A70A1
:100C3C0002214FF07C5000F0DBFB684B1B68002B53
:100C4C0008D02421694800F0F2FF00214FF07C50BD
:100C5C0000F0CEFB0020FFF76BFC0346002B0DD001
:100C6C005D4B0E221A8001220421604800F0C7FF60
:100C7C00012220215D4800F0C2FF93E00220FFF723
:100C8C0057FC0346002B00F08A80594B1B88DAB2C4
:100C9C00584B5A7083E0514B9B68002B1DD0504B26
:100CAC001B7818464F4B1B785A1CD1B24D4A117009
:100CBC00194600F03BF94B4B1A784B4BA3FB021334
:100CCC0059080B465B000B44D31ADAB2454B1A7029
:100CDC0002214FF07C5000F08BFB404B1B68002B2B
:100CEC0008D01221414800F0A2FF00214FF07C50A7
:100CFC0000F07EFB0020FFF71BFC0346002B3ED0D0
:100D0C00354B01221A8001220221384800F077FF6E
:100D1C0001221021354800F072FF314B00221A706D
:100D2C00344B1B781A46334B9B781946314B5B7806
:100D3C000B449A420BD02F4B05221A702D4B0222DA
:100D4C005A702C4B03229A70254B01221A70294B96
:100D5C001A78294B1A70274B9A78284B1A70254B06
:100D6C009B781846FFF756FB03460121184600F006
:100D7C003FFB00214FF07E5000F03AFB12E00220C6
:100D8C00FFF7D6FB0346002B0BD0194B1B88DAB2AE
:100D9C00184B9A7005E000BF04E000BF02E000BFF2
:100DAC0000E000BF0120FFF7C3FB0346002B10D06F
:100DBC000B4B1B78012B0CD10D4B1B8801339AB2BA
:100DCC000B4B1A800A4B1B88642B02D1084B012257
:100DDC001A8000BF80BD00BF74000020840000207A
:100DEC007600002077000020ABAAAAAA000C0140D4
:100DFC0034000020380000203B0000203C00002084
:100E0C00B0B58EB000AF7860464B07F10C041D46B0
:100E1C000FCD0FC40FCD0FC495E8030084E8030079
:100E2C007B689B0007F13802134453F82C3C87F87D
:100E3C00373097F8373003F00103002B0CBF012338
:100E4C000023DBB21A464FF40071374800F0D7FE8E
:100E5C0097F837305B08DBB203F00103002B0CBFB3
:100E6C0001230023DBB21A464FF480612E4800F0B8
:100E7C00C6FE97F837309B08DBB203F00103002B5A
:100E8C000CBF01230023DBB21A464FF40061264845
:100E9C0000F0B5FE97F83730DB08DBB203F0010346
:100EAC00002B0CBF01230023DBB21A464FF48051F8
:100EBC001D4800F0A4FE97F837301B09DBB203F095
:100ECC000103002B0CBF01230023DBB21A464FF4A5
:100EDC000051154800F093FE97F837305B09DBB2F0
:100EEC0003F00103002B0CBF01230023DBB21A46D5
:100EFC004FF480410C4800F082FE97F837309B0984
:100F0C00DBB203F00103002B0CBF01230023DBB287
:100F1C001A464FF40041044800F071FE00BF383708
:100F2C00BD46B0BD642C00080008014080B582B0FD
:100F3C0000AF786039607B68002B40F0AA803B687A
:100F4C00032B00F2918001A252F823F0690F0008E4
:100F5C00A70F0008EF0F00082D1000080022102129
:100F6C008E4800F04CFE012220218C4800F047FEF8
:100F7C0001224021894800F042FE0122802187484D
:100F8C0000F03DFE864B1B78864AA2FB0323DB0850
:100F9C00DBB21846FFF734FFFBE0012210217F483B
:100FAC0000F02DFE002220217C4800F028FE0122BA
:100FBC0040217A4800F023FE01228021774800F07E
:100FCC001EFE774B1A78774BA3FB0213D9080B46FE
:100FDC009B000B445B00D31ADBB21846FFF710FFE3
:100FEC00D7E0012210216D4800F009FE01222021DA
:100FFC006A4800F004FE00224021684800F0FFFD22
:10100C0001228021654800F0FAFD674B1B78654A88
:10101C00A2FB0323DB08DBB21846FFF7F1FEB8E0B6
:10102C00012210215D4800F0EAFD012220215B48DD
:10103C0000F0E5FD01224021584800F0E0FD0322BC
:10104C008021564800F0DBFD574B1A78554BA3FB1B
:10105C000213D9080B469B000B445B00D31ADBB27E
:10106C001846FFF7CDFE94E0002210214B4800F00B
:10107C00C6FD00222021494800F0C1FD002240217C
:10108C00464800F0BCFD00228021444800F0B7FD2A
:10109C007FE03B68022B4CD03B68022B64DC3B6846
:1010AC00002B03D03B68012B1FD05DE000221021E8
:1010BC003A4800F0A4FD01222021384800F09FFDA1
:1010CC0001224021354800F09AFD0122802133484D
:1010DC0000F095FD354B1B88324AA2FB0323DB083D
:1010EC009BB21846FFF78CFE53E0012210212B48CF
:1010FC0000F085FD00222021284800F080FD01220F
:10110C004021264800F07BFD01228021234800F07D
:10111C0076FD264B1A88234BA3FB0213D9080B46EA
:10112C009B000B445B00D31A9BB21846FFF768FE7A
:10113C002FE001221021194800F061FD012220212D
:10114C00164800F05CFD00224021144800F057FDC9
:10115C0000228021114800F052FD154B1B880A3BE0
:10116C001846FFF74DFE14E0012210210B4800F049
:10117C0046FD01222021094800F041FD01224021B9
:10118C00064800F03CFD01228021044800F037FDA8
:10119C0000BF00BF0837BD4680BD00BF000801403E
:1011AC003B000020CDCCCCCC3C00002034000020F7
:1011BC007400002080B500AF00F020FA00F00EF8AB
:1011CC0000F094F800F046F8034801F075F9FFF7C9
:1011DC0043FAFFF7B1FCFAE79000002080B590B01D
:1011EC0000AF07F1180328220021184601F020FD5A
:1011FC003B1D00221A605A609A60DA601A61022361
:10120C00BB610123BB621023FB6200237B6307F1EC
:10121C001803184600F024FD0346002B01D000F003
:10122C00E2F80F237B600023BB600023FB600023EC
:10123C003B6100237B613B1D0021184600F090FFB1
:10124C000346002B01D000F0CEF800BF4037BD465E
:10125C0080BD000080B586B000AF07F10803002206
:10126C001A605A609A60DA603B4600221A605A6033
:10127C001D4B4FF080421A601B4B41F63F725A6077
:10128C00194B00229A60184B0922DA60164B002287
:10129C001A61154B00229A61134801F0BDF8034600
:1012AC00002B01D000F09FF84FF48053BB6007F186
:1012BC00080319460C4801F053FA0346002B01D0E1
:1012CC0000F091F800233B6000237B603B461946FD
:1012DC00054801F01FFC0346002B01D000F083F8F9
:1012EC0000BF1837BD4680BD9000002080B586B089
:1012FC0000AF07F1080300221A605A609A60DA60A6
:10130C00274B9B69264A43F004039361244B9B694A
:10131C0003F004037B607B68214B9B69204A43F0FC
:10132C00080393611E4B9B6903F008033B603B6809
:10133C0000224FF6F0611B4800F061FC00223F21B7
:10134C00194800F05CFC0E23BB600023FB600023FB
:10135C003B6107F108031946124800F0BFFA4FF63B
:10136C00F063BB600123FB6000233B6102237B61C4
:10137C0007F1080319460B4800F0B0FA3F23BB6095
:10138C000123FB6000233B6102237B6107F108030F
:10139C001946054800F0A2FA00BF1837BD4680BDBB
:1013AC000010024000080140000C014080B582B0E2
:1013BC0000AF7860002000F045F8012000F042F802
:1013CC00022000F03FF802210020FFF7CBF80421A7
:1013DC000120FFF7C7F808210220FFF7C3F800BF70
:1013EC000837BD4680BD80B400AF72B600BFFEE7C3
:1013FC0080B582B000AF786039600E497868FEF72E
:10140C009FFE03461846FFF75DF803460A4A82FB27
:10141C0003129210DB17D21A08493B6841F82320BB
:10142C00074A3B68002142F8231000BF0837BD462D
:10143C0080BD00BF00007A446766666678000020B5
:10144C008400002080B483B000AF78600F4A7B68C2
:10145C0052F82330002B13DD0C4A7B6852F82330F2
:10146C005A1E0A497B6841F82320084A7B6852F8C7
:10147C002330002B04DC064A7B68012142F8231040
:10148C0000BF0C37BD4680BC704700BF7800002001
:10149C008400002080B485B000AF154B9B69144AC2
:1014AC0043F001039361124B9B6903F00103BB6092
:1014BC00BB680F4BDB690E4A43F08053D3610C4B76
:1014CC00DB6903F080537B607B680A4B5B68FB60D5
:1014DC00FB6823F0E063FB60FB6843F08063FB6018
:1014EC00044AFB68536000BF1437BD4680BC70478C
:1014FC00001002400000014080B584B000AF78605D
:10150C007B681B68B3F1804F13D10C4BDB690B4A22
:10151C0043F00103D361094BDB6903F00103FB606A
:10152C00FB6800220F211C2000F0A1F91C2000F008
:10153C00BAF900BF1037BD4680BD00BF0010024095
:10154C0080B400AFFEE780B400AFFEE780B400AF1C
:10155C00FEE780B400AFFEE780B400AFFEE780B4D6
:10156C0000AF00BFBD4680BC704780B400AF00BF69
:10157C00BD4680BC704780B400AF00BFBD4680BC88
:10158C00704780B500AF00F07FF800BF80BD000051
:10159C0080B500AF024800F0DBFF00BF80BD00BF8C
:1015AC009000002080B400AF00BFBD4680BC7047E7
:1015BC00FFF7F8FF0B480C490C4A002302E0D45803
:1015CC00C4500433C4188C42F9D3094A094C002383
:1015DC0001E013600432A242FBD301F005FBFFF7DC
:1015EC00E9FD7047000000204C000020B82C0008DA
:1015FC004C000020DC000020FEE7000080B500AFAE
:10160C00084B1B68074A43F010031360032000F0DB
:10161C0023F90F2000F008F8FFF73CFF00231846D1
:10162C0080BD00BF0020024080B582B000AF786062
:10163C00124B1A68124B1B7819464FF47A73B3FB92
:10164C00F1F3B2FBF3F3184600F03BF90346002B21
:10165C0001D001230EE07B680F2B0AD80022796899
:10166C004FF0FF3000F003F9064A7B68136000234B
:10167C0000E0012318460837BD4680BD400000201D
:10168C00480000204400002080B400AF054B1B78BC
:10169C001A46054B1B681344034A136000BFBD4632
:1016AC0080BC704748000020D800002080B400AFF8
:1016BC00024B1B681846BD4680BC7047D800002002
:1016CC0080B485B000AF78607B6803F00703FB60E3
:1016DC000C4BDB68BB60BA684FF6FF031340BB6072
:1016EC00FB681A02BB68134343F0BF6343F4003337
:1016FC00BB60044ABB68D36000BF1437BD4680BCD6
:10170C00704700BF00ED00E080B400AF044BDB6815
:10171C001B0A03F007031846BD4680BC704700BF88
:10172C0000ED00E080B483B000AF0346FB7197F985
:10173C000730002B0BDBFB7903F01F02064997F9EE
:10174C0007305B09012000FA02F241F8232000BFA8
:10175C000C37BD4680BC704700E100E080B483B01C
:10176C0000AF03463960FB7197F90730002B0ADB99
:10177C003B68DAB20C4997F907301201D2B20B442C
:10178C0083F800230AE03B68DAB20849FB7903F0DE
:10179C000F03043B1201D2B20B441A7600BF0C3774
:1017AC00BD4680BC704700BF00E100E000ED00E0EA
:1017BC0080B489B000AFF860B9607A60FB6803F060
:1017CC000703FB61FB69C3F10703042B28BF042348
:1017DC00BB61FB690433062B02D9FB69033B00E0B8
:1017EC0000237B614FF0FF32BB6902FA03F3DA434B
:1017FC00BB681A407B699A404FF0FF317B6901FA54
:10180C0003F3D9437B680B40134318462437BD467A
:10181C0080BC704780B582B000AF78607B68013BBC
:10182C00B3F1807F01D301230FE00A4A7B68013BAF
:10183C0053600F214FF0FF30FFF790FF054B002254
:10184C009A60044B07221A60002318460837BD46DD
:10185C0080BD00BF10E000E080B582B000AF7860C2
:10186C007868FFF72DFF00BF0837BD4680BD80B5F7
:10187C0086B000AF0346B9607A60FB7300237B61CE
:10188C00FFF742FF78617A68B9687869FFF790FFD3
:10189C00024697F90F3011461846FFF75FFF00BF5D
:1018AC001837BD4680BD80B582B000AF0346FB71D2
:1018BC0097F907301846FFF735FF00BF0837BD46CC
:1018CC0080BD80B582B000AF78607868FFF7A2FF6A
:1018DC00034618460837BD4680BD000080B48BB067
:1018EC0000AF7860396000237B6200233B6248E1E3
:1018FC0001227B6A02FA03F3FB613B681B68FA69FD
:10190C001340BB61BA69FB699A4240F037813B686E
:10191C005B68A34A93425ED0A14A934275D8A14A10
:10192C00934258D09F4A93426FD89F4A934252D0C9
:10193C009D4A934269D89D4A93424CD09B4A93420C
:10194C0063D89B4A934246D0994A93425DD8122B56
:10195C002AD8122B59D801A252F823F0E319000807
:10196C00BD190008CF190008111A0008171A000831
:10197C00171A0008171A0008171A0008171A000877
:10198C00171A0008171A0008171A0008171A000867
:10199C00171A0008171A0008171A0008171A000857
:1019AC00C5190008D9190008824A934213D02CE0BB
:1019BC003B68DB683B6229E03B68DB6804333B62D5
:1019CC0024E03B68DB6808333B621FE03B68DB6864
:1019DC000C333B621AE03B689B68002B02D104235A
:1019EC003B6213E03B689B68012B05D108233B62EB
:1019FC007B68FA691A6109E008233B627B68FA6923
:101A0C005A6103E000233B6200E000BFBB69FF2B7F
:101A1C0001D87B6801E07B6804337B61BB69FF2BD9
:101A2C0002D87B6A9B0002E07B6A083B9B003B610F
:101A3C007B691A680F213B6901FA03F3DB431A40F7
:101A4C00396A3B6901FA03F31A437B691A603B68F4
:101A5C005B6803F08053002B00F09080564B9B6921
:101A6C00554A43F001039361534B9B6903F0010307
:101A7C00BB60BB68514A7B6A9B08023352F8233027
:101A8C00FB607B6A03F003039B000F2202FA03F353
:101A9C00DB43FA681340FB607B68494A93420DD0E4
:101AAC007B68484A934207D07B68474A934201D1EE
:101ABC00022304E0032302E0012300E000237A6AFE
:101ACC0002F0030292009340FA681343FB603B4917
:101ADC007B6A9B080233FA6841F823203B685B68F9
:101AEC0003F48013002B06D0384B9A683749BB6936
:101AFC0013438B6006E0354B9A68BB69DB43334973
:101B0C0013408B603B685B6803F40013002B06D01A
:101B1C002E4BDA682D49BB691343CB6006E02B4B87
:101B2C00DA68BB69DB4329491340CB603B685B68CF
:101B3C0003F40033002B06D0244B5A682349BB69AD
:101B4C0013434B6006E0214B5A68BB69DB431F49CA
:101B5C0013404B603B685B6803F48033002B06D06A
:101B6C001A4B1A681949BB6913430B6006E0174BF3
:101B7C001A68BB69DB43154913400B607B6A013360
:101B8C007B623B681A687B6A22FA03F3002B7FF4B2
:101B9C00AFAE00BF00BF2C37BD4680BC704700BF46
:101BAC000000321000003110000022100000211043
:101BBC000000121000001110001002400000014043
:101BCC0000080140000C01400010014000040140DD
:101BDC0080B485B000AF78600B467B807B689A68D8
:101BEC007B881340002B02D00123FB7301E0002300
:101BFC00FB73FB7B18461437BD4680BC704780B422
:101C0C0083B000AF78600B467B8013467B707B788B
:101C1C00002B03D07A887B681A6103E07B881A0456
:101C2C007B681A6100BF0C37BD4680BC704780B41E
:101C3C0085B000AF78600B467B807B68DB68FB600F
:101C4C007A88FB6813401A04FB68D9437B880B40E5
:101C5C001A437B681A6100BF1437BD4680BC7047BD
:101C6C0080B586B000AF78607B68002B01D1012372
:101C7C006CE27B681B6803F00103002B00F087808B
:101C8C00924B5B6803F00C03042B0CD08F4B5B68FE
:101C9C0003F00C03082B12D18C4B5B6803F48033DC
:101CAC00B3F5803F0BD1894B1B6803F40033002B39
:101CBC006CD07B685B68002B68D1012346E27B68A3
:101CCC005B68B3F5803F06D1804B1B687F4A43F4B9
:101CDC00803313602EE07B685B68002B0CD17B4B50
:101CEC001B687A4A23F480331360784B1B68774A5D
:101CFC0023F4802313601DE07B685B68B3F5A02F91
:101D0C000CD1724B1B68714A43F4802313606F4BE8
:101D1C001B686E4A43F4803313600BE06B4B1B68FB
:101D2C006A4A23F480331360684B1B68674A23F4B8
:101D3C00802313607B685B68002B13D0FFF7B6FC25
:101D4C00386108E0FFF7B2FC02463B69D31A642BFA
:101D5C0001D90323FAE15D4B1B6803F40033002B1C
:101D6C00F0D014E0FFF7A2FC386108E0FFF79EFC0E
:101D7C0002463B69D31A642B01D90323E6E1534B8A
:101D8C001B6803F40033002BF0D100E000BF7B682C
:101D9C001B6803F00203002B63D04C4B5B6803F011
:101DAC000C03002B0BD0494B5B6803F00C03082B86
:101DBC001CD1464B5B6803F48033002B16D1434B8C
:101DCC001B6803F00203002B05D07B681B69012BF9
:101DDC0001D00123BAE13D4B1B6823F0F8027B686C
:101DEC005B69DB00394913430B603AE07B681B6984
:101DFC00002B20D0364B01221A60FFF757FC3861BC
:101E0C0008E0FFF753FC02463B69D31A022B01D9B9
:101E1C0003239BE12D4B1B6803F00203002BF0D036
:101E2C002A4B1B6823F0F8027B685B69DB002749AF
:101E3C0013430B6015E0264B00221A60FFF736FCAB
:101E4C00386108E0FFF732FC02463B69D31A022BDB
:101E5C0001D903237AE11D4B1B6803F00203002B0D
:101E6C00F0D17B681B6803F00803002B3AD07B6829
:101E7C009B69002B19D0174B01221A60FFF716FC37
:101E8C00386108E0FFF712FC02463B69D31A022BBB
:101E9C0001D903235AE10D4B5B6A03F00203002BBB
:101EAC00F0D0012000F09AFA1CE00A4B00221A60D4
:101EBC00FFF7FCFB38610FE0FFF7F8FB02463B69CC
:101ECC00D31A022B08D9032340E100BF00100240B3
:101EDC0000004242800442429E4B5B6A03F00203C4
:101EEC00002BE9D17B681B6803F00403002B00F086
:101EFC00A6800023FB75974BDB6903F08053002B06
:101F0C000DD1944BDB69934A43F08053D361914BD1
:101F1C00DB6903F08053BB60BB680123FB758E4B00
:101F2C001B6803F48073002B18D18B4B1B688A4AF7
:101F3C0043F480731360FFF7B9FB386108E0FFF7D7
:101F4C00B5FB02463B69D31A642B01D90323FDE090
:101F5C00814B1B6803F48073002BF0D07B68DB682B
:101F6C00012B06D17B4B1B6A7A4A43F001031362A7
:101F7C002DE07B68DB68002B0CD1764B1B6A754A15
:101F8C0023F001031362734B1B6A724A23F00403A0
:101F9C0013621CE07B68DB68052B0CD16D4B1B6A54
:101FAC006C4A43F0040313626A4B1B6A694A43F0A0
:101FBC00010313620BE0674B1B6A664A23F00103B3
:101FCC001362644B1B6A634A23F0040313627B683D
:101FDC00DB68002B15D0FFF769FB38610AE0FFF7CF
:101FEC0065FB02463B69D31A41F28832934201D910
:101FFC000323ABE0574B1B6A03F00203002BEED01C
:10200C0014E0FFF753FB38610AE0FFF74FFB024681
:10201C003B69D31A41F28832934201D9032395E0EC
:10202C004C4B1B6A03F00203002BEED1FB7D012B02
:10203C0005D1484BDB69474A23F08053D3617B6859
:10204C00DB69002B00F08180424B5B6803F00C03D2
:10205C00082B61D07B68DB69022B46D13F4B0022F9
:10206C001A60FFF723FB386108E0FFF71FFB0246FD
:10207C003B69D31A022B01D9032367E0354B1B684C
:10208C0003F00073002BF0D17B681B6AB3F5803F23
:10209C0008D1304B5B6823F400327B689B682D4978
:1020AC0013434B602B4B5B6823F474127B68196AE7
:1020BC007B685B6A0B43274913434B60274B012218
:1020CC001A60FFF7F3FA386108E0FFF7EFFA0246FF
:1020DC003B69D31A022B01D9032337E01D4B1B6834
:1020EC0003F00073002BF0D02FE01C4B00221A6081
:1020FC00FFF7DCFA386108E0FFF7D8FA02463B69D3
:10210C00D31A022B01D9032320E0124B1B6803F0D6
:10211C000073002BF0D118E07B68DB69012B01D137
:10212C00012313E00B4B5B68FB60FB6803F480320C
:10213C007B681B6A9A4206D1FB6803F470127B68B9
:10214C005B6A9A4201D0012300E00023184618373D
:10215C00BD4680BD0010024000700040600042424D
:10216C0080B584B000AF786039607B68002B01D1FA
:10217C000123D0E06A4B1B6803F007033A689A42CC
:10218C0010D9674B1B6823F0070265493B68134362
:10219C000B60634B1B6803F007033A689A4201D04B
:1021AC000123B8E07B681B6803F00203002B20D0EE
:1021BC007B681B6803F00403002B05D0594B5B684C
:1021CC00584A43F4E06353607B681B6803F00803D0
:1021DC00002B05D0534B5B68524A43F46053536059
:1021EC00504B5B6823F0F0027B689B684D491343AE
:1021FC004B607B681B6803F00103002B40D07B68AD
:10220C005B68012B07D1474B1B6803F40033002B91
:10221C0015D101237FE07B685B68022B07D1414B12
:10222C001B6803F00073002B09D1012373E03D4BB5
:10223C001B6803F00203002B01D101236BE0394B27
:10224C005B6823F003027B685B68364913434B6081
:10225C00FFF72CFAF8600AE0FFF728FA0246FB6851
:10226C00D31A41F28832934201D9032353E02D4B08
:10227C005B6803F00C027B685B689B009A42EBD1B5
:10228C00274B1B6803F007033A689A4210D2244B81
:10229C001B6823F0070222493B6813430B60204B59
:1022AC001B6803F007033A689A4201D0012332E01D
:1022BC007B681B6803F00403002B08D0194B5B6888
:1022CC0023F4E0627B68DB68164913434B607B6840
:1022DC001B6803F00803002B09D0124B5B6823F436
:1022EC0060527B681B69DB000E4913434B6000F0A6
:1022FC0021F802460B4B5B681B0903F00F030A49DC
:10230C00CB5C22FA03F3094A1360094B1B6818468D
:10231C00FFF78AF9002318461037BD4680BD00BF71
:10232C0000200240001002408C2C000840000020CD
:10233C004400002080B487B000AF0023FB60002372
:10234C00BB6000237B6100237B6000233B611E4B41
:10235C005B68FB60FB6803F00C03042B02D0082BBA
:10236C0003D027E0194B3B6127E0FB689B0C03F083
:10237C000F03174AD35C7B60FB6803F48033002B9C
:10238C0010D0114B5B685B0C03F00103114AD35C5A
:10239C00BB607B680D4A02FB03F2BB68B2FBF3F334
:1023AC007B6104E07B680C4A02FB03F37B617B6975
:1023BC003B6102E0054B3B6100BF3B6918461C3793
:1023CC00BD4680BC704700BF0010024000127A006E
:1023DC009C2C0008AC2C000800093D0080B485B092
:1023EC0000AF78600A4B1B680A4AA2FB03235B0A06
:1023FC007A6802FB03F3FB6000BFFB685A1EFA60AD
:10240C00002BF9D100BF00BF1437BD4680BC70470C
:10241C0040000020D34D621080B582B000AF7860D0
:10242C007B68002B01D1012341E07B6893F83D30A0
:10243C00DBB2002B06D17B68002283F83C20786845
:10244C00FFF75AF87B68022283F83D207B681A68F4
:10245C007B6804331946104600F06EFA7B68012243
:10246C0083F846207B68012283F83E207B6801229A
:10247C0083F83F207B68012283F840207B6801228F
:10248C0083F841207B68012283F842207B6801227B
:10249C0083F843207B68012283F844207B68012267
:1024AC0083F845207B68012283F83D2000231846E1
:1024BC000837BD4680BD000080B485B000AF7860A1
:1024CC007B6893F83D30DBB2012B01D0012335E062
:1024DC007B68022283F83D207B681B68DA687B6886
:1024EC001B6842F00102DA607B681B68164A934253
:1024FC0009D07B681B68B3F1804F04D07B681B68E4
:10250C00124A934211D17B681B689B6803F0070346
:10251C00FB60FB68062B10D07B681B681A687B6815
:10252C001B6842F001021A6007E07B681B681A689E
:10253C007B681B6842F001021A60002318461437AE
:10254C00BD4680BC704700BF002C01400004004019
:10255C0080B582B000AF78607B681B681B6903F0A4
:10256C000203022B22D17B681B68DB6803F0020399
:10257C00022B1BD17B681B686FF002021A617B680F
:10258C0001221A777B681B689B6903F00303002BFD
:10259C0003D0786800F0B4F905E0786800F0A7F98A
:1025AC00786800F0B6F97B6800221A777B681B68A4
:1025BC001B6903F00403042B22D17B681B68DB68C6
:1025CC0003F00403042B1BD17B681B686FF004021F
:1025DC001A617B6802221A777B681B689B6903F47B
:1025EC004073002B03D0786800F08AF905E0786816
:1025FC0000F07DF9786800F08CF97B6800221A777E
:10260C007B681B681B6903F00803082B22D17B68CD
:10261C001B68DB6803F00803082B1BD17B681B6865
:10262C006FF008021A617B6804221A777B681B68BA
:10263C00DB6903F00303002B03D0786800F060F92A
:10264C0005E0786800F053F9786800F062F97B686F
:10265C0000221A777B681B681B6903F01003102B90
:10266C0022D17B681B68DB6803F01003102B1BD195
:10267C007B681B686FF010021A617B6808221A775E
:10268C007B681B68DB6903F44073002B03D078680C
:10269C0000F036F905E0786800F029F9786800F068
:1026AC0038F97B6800221A777B681B681B6903F07A
:1026BC000103012B0ED17B681B68DB6803F001035F
:1026CC00012B07D17B681B686FF001021A617868D7
:1026DC00FEF76CFE7B681B681B6903F08003802B84
:1026EC000ED17B681B68DB6803F08003802B07D15D
:1026FC007B681B686FF080021A61786800F06BFAD7
:10270C007B681B681B6903F04003402B0ED17B6870
:10271C001B68DB6803F04003402B07D17B681B6808
:10272C006FF040021A61786800F0FCF87B681B6857
:10273C001B6903F02003202B0ED17B681B68DB6820
:10274C0003F02003202B07D17B681B686FF020025D
:10275C001A61786800F036FA00BF0837BD4680BDB4
:10276C0080B584B000AF786039600023FB737B6860
:10277C0093F83C30012B01D10223B4E07B68012299
:10278C0083F83C207B68022283F83D207B681B6821
:10279C009B68BB60BB6823F07703BB60BB6823F40A
:1027AC007F43BB607B681B68BA689A603B681B6898
:1027BC00B3F5005F3ED0B3F5005F00F28780B3F550
:1027CC00805F00F08680B3F5805F7FD8702B1AD0C5
:1027DC00702B7BD8602B50D0602B77D8502B3CD0F3
:1027EC00502B73D8402B58D0402B6FD8302B64D043
:1027FC00302B6BD8202B60D0202B67D8002B5CD0D3
:10280C00102B5AD062E07B6818683B6899683B686B
:10281C005A683B68DB6800F05EF97B681B689B6854
:10282C00BB60BB6843F07703BB607B681B68BA680E
:10283C009A604FE07B6818683B6899683B685A68F7
:10284C003B68DB6800F047F97B681B689A687B681B
:10285C001B6842F480429A603CE07B6818683B68D5
:10286C0059683B68DB681A4600F0BEF87B681B6849
:10287C005021184600F015F92CE07B6818683B686D
:10288C0059683B68DB681A4600F0DCF87B681B680B
:10289C006021184600F005F91CE07B6818683B685D
:1028AC0059683B68DB681A4600F09EF87B681B6829
:1028BC004021184600F0F5F80CE07B681A683B687C
:1028CC001B681946104600F0ECF803E00123FB737B
:1028DC0000E000BF7B68012283F83D207B6800226A
:1028EC0083F83C20FB7B18461037BD4680BD80B476
:1028FC0083B000AF786000BF0C37BD4680BC70471A
:10290C0080B483B000AF786000BF0C37BD4680BC8C
:10291C00704780B483B000AF786000BF0C37BD4601
:10292C0080BC704780B483B000AF786000BF0C37B8
:10293C00BD4680BC7047000080B485B000AF7860A5
:10294C0039607B681B68FB607B68254A934207D023
:10295C007B68B3F1804F03D07B68224A934208D145
:10296C00FB6823F07003FB603B685B68FA681343F9
:10297C00FB607B681A4A934207D07B68B3F1804FA7
:10298C0003D07B68174A934208D1FB6823F4407349
:10299C00FB603B68DB68FA681343FB60FB6823F061
:1029AC0080023B685B691343FB607B68FA681A60C2
:1029BC003B689A687B68DA623B681A687B689A6243
:1029CC007B68074A934203D13B681A697B681A6398
:1029DC007B6801225A6100BF1437BD4680BC70472A
:1029EC00002C01400004004080B487B000AFF860B8
:1029FC00B9607A60FB681B6A7B61FB681B6A23F019
:102A0C000102FB681A62FB689B693B613B6923F01E
:102A1C00F0033B617B681B013A6913433B617B69A3
:102A2C0023F00A037B617A69BB6813437B61FB6803
:102A3C003A699A61FB687A691A6200BF1C37BD4615
:102A4C0080BC704780B487B000AFF860B9607A6022
:102A5C00FB681B6A7B61FB681B6A23F01002FB6836
:102A6C001A62FB689B693B613B6923F470433B61D1
:102A7C007B681B033A6913433B617B6923F0A0031A
:102A8C007B61BB681B017A6913437B61FB683A6904
:102A9C009A61FB687A691A6200BF1C37BD4680BC1C
:102AAC00704780B485B000AF786039607B689B68F4
:102ABC00FB60FB6823F07003FB603A68FB68134310
:102ACC0043F00703FB607B68FA689A6000BF143719
:102ADC00BD4680BC704780B487B000AFF860B96069
:102AEC007A603B60FB689B687B617B6923F47F4366
:102AFC007B613B681A027B681A43BB6813437A6993
:102B0C0013437B61FB687A699A6000BF1C37BD4632
:102B1C0080BC704780B485B000AF786039607B684A
:102B2C0093F83C30012B01D1022341E07B68012258
:102B3C0083F83C207B68022283F83D207B681B686D
:102B4C005B68FB607B681B689B68BB60FB6823F061
:102B5C007003FB603B681B68FA681343FB607B687F
:102B6C001B68FA685A607B681B68144A934209D048
:102B7C007B681B68B3F1804F04D07B681B68104ADC
:102B8C0093420CD1BB6823F08003BB603B685B684D
:102B9C00BA681343BB607B681B68BA689A607B6831
:102BAC00012283F83D207B68002283F83C2000231F
:102BBC0018461437BD4680BC704700BF002C01403E
:102BCC000004004080B483B000AF786000BF0C37C5
:102BDC00BD4680BC704780B483B000AF786000BF46
:102BEC000C37BD4680BC704770B500260C4D0D4CA3
:102BFC00641BA410A64209D100F022F800260A4D4D
:102C0C000A4C641BA410A64205D170BD55F8043BB8
:102C1C0098470136EEE755F8043B98470136F2E742
:102C2C00B02C0008B02C0008B02C0008B42C000804
:102C3C0003460244934200D1704703F8011BF9E7A5
:102C4C00F8B500BFF8BC08BC9E467047F8B500BF8D
:082C5C00F8BC08BC9E4670475D
:102C64003F000000060000005B0000004F00000071
:102C7400660000006D0000007D00000007000000F9
:102C84007F0000006F000000000000000000000052
:102C940001020304060708090203040506070809DC
:0C2CA4000A0B0C0D0E0F101001020000B6
:042CB00031010008E6
:042CB4000D01000806
:102CB8000100000001000000010000000100000008
:102CC80001000000010000000100000001000000F8
:102CD80001000000010000000100000001000000E8
:102CE8003200000001000000050203050300000097
:0C2CF8000024F4001000000001000000A7
:04000005080015BD1D
:00000001FF
